:03000000020ED914
:0C0ED900787FE4F6D8FD75815A020F20E6
:0613B2000154000155008A
:1008230075210075220112134F1211BF12141312F6
:10083300094A120C2C12136CC2AF120E4CE53AFB90
:100843007A007D017F02120DA2E4F52F7B3A7D032E
:100853007F02120CEAE53BFB7A007D047F02120D56
:10086300A2E4F52F7B3A7D067F02120CEAE53CFBFE
:100873007A007D077F02120DA2E53C6008E53B602C
:1008830004E53A700EE53C700A12136C7FE87E03B0
:10089300121388E53A75F00C84E5F0700BE53C70B3
:1008A30007E53B700375C720E53AB4061EE53BB484
:1008B3000619E53CB40614C2A07FF47E0112138826
:1008C300D2A07FF47E011213888006752100752261
:1008D30001E4F52FAB0C7D01FF120CEAE4F52FAB1D
:1008E3000D7D02FF120CEAE4F52FAB0E7D03FF1220
:1008F3000CEAE4F52FAB0F7D04FF120CEAE4F52FAD
:10090300AB107D05FF120CEAE4F52FAB117D017FDF
:1009130001120CEAE4F52FAB127D027F01120CEAFF
:10092300E4F52FAB137D037F01120CEAE4F52FAB43
:10093300147D047F01120CEAE4F52FAB157D057FCE
:0709430001120CEA02083B5F
:030023000211398E
:0B113900C0E0C0D075D000C000C007AF
:1011440075A0FF30982AC298E554C394155021E540
:1011540099B44F057555018008E599B45403755544
:1011640000E555B4010AAF54055474082FF8A69944
:09117400D007D000D0D0D0E03249
:10138800EF4E6010007D0B7CBEDCFEDDFCEF1F70B5
:04139800EF1E80ECD8
:01139C00222E
:0713FB000000007F0ADFFE85
:0114020022C7
:071403000000007F18DFFE6E
:01140A0022BF
:0913B8000737160A0D1016350363
:05141300C2B5C2B622C3
:0610450025F0FDEC3EFC6D
:06104B008C238D24AB078D
:10105100D2B5E4FD74017E00A805088005C333CE36
:1010610033CED8F9FFEBF582EF558224FF92B4D24B
:10107100B6C2B60DBD08DDE4FD74017E00A8050809
:101081008005C333CE33CED8F9FFE5235EFEE524D8
:101091005F4E24FF92B4D2B6C2B60DBD08DBC2B515
:0110A100222C
:0210A200AD0798
:1010A400E4F9430501D2B5FB74017E00A80308806E
:1010B40005C333CE33CED8F9FFEDF582EF55822444
:1010C400FF92B4C2B6D2B60BBB08DDE4FBD2B6C203
:1010D400B630B40D7401A803088002C333D8FC42AF
:0B10E400010BBB08E8C2B5C2B4AF01AD
:0110EF0022DE
:10094A00E51175F00AA4251224F8F53AE51424D025
:10095A0075F00AA4FFE51524D02FF53BE51724D03E
:10096A0075F00AA4FFE51824D02FF53CE4FDFC7FBE
:10097A008E12104BE53775F00A8475F010A4FFAE9D
:10098A00F0E53775F00A84EF7F8C121045E538756B
:10099A00F00A8475F010A4FFAEF0E53875F00A8409
:1009AA007C00EF7F88121045E53975F00A8475F0EE
:1009BA0010A4FFAEF0E53975F00A847C00EF25F04B
:1009CA00FDEC3EFC7F8612104BE53A75F00A847501
:1009DA00F010A4FFAEF0E53A75F00A847C00EF252A
:1009EA00F0FDEC3EFC7F8412104BE53B75F00A8467
:1009FA0075F010A4FFAEF0E53B75F00A847C00EFB9
:100A0A0025F0FDEC3EFC7F8212104BE53C75F00AA6
:100A1A008475F010A4FFAEF0E53C75F00A847C0002
:100A2A00EF25F0FDEC3EFC7F8012104BE53D75F0A2
:100A3A000A8475F010A4FFAEF0E53D75F00A847CD7
:100A4A0000EF25F0FDEC3EFC7F8A12104B7D807C86
:060A5A00007F8E02104B2C
:100E4C007F8C1210A2EFC4540F75F00AA4FEEF545D
:100E5C000F2EF5377F881210A2EFC4540F75F00ACD
:100E6C00A4FEEF540F2EF5387F861210A2EFC45457
:100E7C000F75F00AA4FEEF540F2EF5397F84121073
:100E8C00A2EFC4540F75F00AA4FEEF540F2EF53ADE
:100E9C007F821210A2EFC4540F75F00AA4FEEF5417
:100EAC000F2EF53B7F801210A2EFC4540F75F00A81
:100EBC00A4FEEF540F2EF53C7F8A1210A2EFC454FF
:0C0ECC000F75F00AA4FEEF540F2EF53D48
:010ED80022F7
:1000260000000000000000000000000000000000CA
:10003600000000F80000000000000033300000005F
:1000460000100C06100C0600000000000000000066
:1000560040C07840C0784000043F04043F040400D8
:10006600007088FC08300000001820FF211E0000E8
:10007600F008F000E018000000211C031E211E00FD
:1000860000F00888700000001E2123241927211083
:1000960010160E0000000000000000000000000026
:1000A600000000E0180402000000000718204000CD
:1000B60000020418E00000000040201807000000BD
:1000C600404080F0804040000202010F0102020021
:1000D600000000F0000000000101011F0101010005
:1000E600000000000000000080B07000000000006A
:1000F60000000000000000000001010101010101F3
:100106000000000000000000003030000000000089
:10011600000000008060180400601806010000005E
:1001260000E010080810E000000F102020100F005B
:10013600001010F8000000000020203F20200000E2
:10014600007008080888700000302824222130003A
:1001560000300888884830000018202020110E0042
:100166000000C02010F8000000070424243F2400EB
:1001760000F80888880808000019212020110E00C0
:1001860000E0108888180000000F112020110E00D2
:1001960000380808C83808000000003F00000000CA
:1001A6000070880808887000001C222121221C008B
:1001B60000E010080810E0000000312222110F00B4
:1001C600000000C0C0000000000000303000000049
:1001D60000000080000000000000806000000000B9
:1001E60000008040201008000001020408102000D2
:1001F600404040404040400004040404040404001D
:1002060000081020408000000020100804020100B1
:10021600007048080808F0000000003036010000B1
:10022600C030C828E810E0000718272423140B0064
:100236000000C038E0000000203C230202273820DE
:1002460008F8888888700000203F202020110E00C2
:10025600C0300808080838000718202020100800B9
:1002660008F808080810E000203F202020100F00A2
:1002760008F88888E8081000203F2020232018006E
:1002860008F88888E8081000203F200003000000D6
:10029600C03008080838000007182020221E020077
:1002A60008F808000008F808203F210101213F2036
:1002B600000808F8080800000020203F2020000061
:1002C60000000808F8080800C08080807F00000051
:1002D60008F888C028180800203F2001263820008A
:1002E60008F8080000000000203F202020203000F1
:1002F60008F8F800F8F80800203F003F003F20000B
:1003060008F830C00008F808203F200007183F0012
:10031600E01008080810E0000F10202020100F0041
:1003260008F808080808F000203F21010101000034
:10033600E01008080810E0000F18242438504F0079
:1003460008F8888888887000203F2000030C302039
:1003560000708808080838000038202121221C0077
:10036600180808F8080818000000203F20000000C0
:1003760008F808000008F808001F202020201F00A9
:100386000878880000C83808000007380E01000009
:10039600F80800F80008F800033C0700073C0300D3
:1003A600081868808068180820302C03032C302039
:1003B6000838C800C83808000000203F20000000A8
:1003C60010080808C8380800203826212020180000
:1003D600000000FE020202000000007F40404000D4
:1003E600000C30C000000000000000010638C0000C
:1003F60000020202FE000000004040407F000000B4
:1004060000000402020204000000000000000000D8
:1004160000000000000000008080808080808080D6
:1004260000020204000000000000000000000000BE
:1004360000008080808000000019242222223F20B4
:1004460008F8008080000000003F112020110E00F7
:100456000000008080800000000E11202020110086
:10046600000000808088F800000E112020103F2038
:100476000000808080800000001F222222221300BC
:10048600008080F0888888180020203F2020000007
:100496000000808080808000006B949494936000BC
:1004A60008F8008080800000203F210000203F20C7
:1004B60000809898000000000020203F20200000C7
:1004C600000000809898000000C08080807F0000B7
:1004D60008F8000080808000203F24022D30200094
:1004E600000808F8000000000020203F202000003F
:1004F6008080808080808000203F20003F20003F59
:100506008080008080800000203F210000203F2066
:100516000000808080800000001F202020201F0017
:10052600808000808000000080FFA12020110E0046
:100536000000008080808000000E112020A0FF8037
:10054600808080008080800020203F2120000100E4
:100556000000808080808000003324242424190039
:10056600008080E0808000000000001F2020000046
:100576008080000000808000001F202020103F2087
:10058600808080000080808000010E300806010017
:1005960080800080008080800F300C030C300F00BC
:1005A60000808000808080000020312E0E312000E7
:1005B600808080000080808080818E701806010017
:1005C60000808080808080000021302C2221300035
:1005D60000000000807C020200000000003F404056
:1005E60000000000FF00000000000000FF00000007
:1005F6000002027C800000000040403F0000000036
:1006060000060101020204040000000000000000D0
:10061600B4E700101010101010101010FF1010107A
:100626001010000000000106000040807F0000005E
:10063600000000CFD400000000FE929292929292A7
:1006460092FE0000000040424458407F4040407FF8
:10065600405048464000CABE0040404242424242E4
:10066600C2424242424240400020100806004080FA
:100676007F0000000204083000C6C1000000FE1220
:1006860092B2D2929292D2B29E00000040300F04F3
:1006960084641F040404FF0404040000C4BB0000B7
:1006A6000202FAAAAFAAAAAAAFAAFA020200001286
:1006B600120A7E0A0B0AFE0A2A4A3E0A121200B2E1
:1006C600E2001060028C00FE02F202FE00F800FF5B
:1006D600000004047E018047300F10270047807F0A
:1006E6000000CAD400404042CC009090909090FF09
:1006F60010111610000000003F1028603F10100176
:100706000E3040F000B3CC002424A4FE2322003E89
:1007160022222222223E0000080601FF010640494D
:1007260049497F4949494100D0F2000000FC0404D0
:10073600041415569454341404040040300F000178
:10074600010141817F010101050300C7000002FA92
:100756008282FE8000FE02126282621A020008187D
:100766004884443F007F5048464146584000B6AF53
:10077600004044C4444444401010FF101010F000E0
:1007860000103C131014B840300E014080403F006A
:1007960000CAB9008060F80704E4242424FF242456
:1007A60024E404000000FF0080814529112F414107
:1007B60081818000D3C3000000FE22222222FE2275
:1007C600222222FE00000080601F020202027F0237
:1007D6000242827F000000C8ED0008C8B88FE88892
:1007E6008840300FC8082818000008180808FF04B9
:1007F6008440300E010E30408000BCFE0000806058
:10080600F80780601C1010FF101010000001000097
:0D081600FF000202020202FF0202020200C5
:0E13C20000007F167E037DE3DDFEDEFCDFFA19
:0113D00022FA
:1010F000C2878F20A2079286D287C287A2069286D5
:10110000D287C287A2059286D287C287A20492861E
:10111000D287C287A2039286D287C287A202928612
:10112000D287C287A2019286D287C287A200928606
:09113000D287C287D287C2872250
:1012FD00F583E5822530F582E43583F583E493F4B7
:03130D00FF7D4021
:101310008F328D331213D17F781210F0AF33121049
:09132000F0AF321210F00213EFDD
:0D129D00E52C25E004FFE52D75F008A4FD0B
:1012AA008D31EF24B0FFE4FD121310E53154F0C480
:1012BA00540F4410FFE4FD121310E531540FFFE4FC
:0412CA00FD021310FE
:101233008F23E4FD7F20121310E4FDAF231213105C
:10124300E4FD7F21121310E4FDFF121310E4FD7F70
:101253007F121310E4FD7F22121310E4FDFF12131B
:0812630010E4FD7F07021310E7
:10136C00E4F523F5247D40E4FF1213100524E52455
:0B137C0070020523C3E523940440EA3F
:011387002243
:080FE5008B478A488949AF05DA
:100FED00121233E54B6027E4F54CF54DAB47AA489B
:100FFD00A949854D82854C83120A7912130C054D32
:10100D00E54D7002054CC3E54C940440DF22E4F538
:10101D004CF54DAB47AA48A949854D82854C8312A5
:10102D000A79FF7D40121310054DE54D7002054CF8
:07103D00C3E54C940440DC04
:011044002289
:060CEA008F2C8D2D8B2ED6
:100CF000E52F6045E52C25E01212A2E4F53075F0F1
:100D000010E52EA42426F582E5F034FE1212FD052E
:100D100030E530C3940840E612129DE4F53075F0DA
:100D200010E52EA4242EF582E5F034FE1212FD0506
:100D300030E530C3940840E622E52C25E01212A2EB
:100D4000E4F53075F010E52EA42426F582E5F034A4
:100D5000FEF583E5822530F582E43583F583E4935F
:100D6000FF7D401213100530E530C3940840D412C3
:100D7000129DE4F53075F010E52EA4242EF582E5E1
:100D8000F034FEF583E5822530F582E43583F58382
:100D9000E493FF7D401213100530E530C394084002
:010DA000D47E
:010DA100222F
:0A0B4F008F3E8D3F8B408A418942A2
:100B5900E4F544F545AB40AA41A942120A60FF9069
:100B6900061675F023E545120B43E54475F023A4F9
:100B79002583F583E4936F6003020C17900001123B
:100B89000A79FF90061775F023E545120B43E544F2
:100B990075F023A42583F583E4936F7071E53E25F1
:100BA900E0FFE53F1212A5E4F546E546B4100BE572
:100BB9003E25E004FFE53F1212A5E54390061975AD
:100BC900F023601FE545120B43E54475F023A42586
:100BD90083F583E5822546F582E43583F583E4933D
:100BE900F4801CE545120B43E54475F023A42583E5
:100BF900F583E5822546F582E43583F583E493FFA1
:100C09007D401213100546E546C39420409C0545D6
:100C1900E54570020544C3940FE54494005003026E
:020C29000B5E60
:010C2B0022A6
:100F65008F4E8D4F8B508A518952E4FF121233AB4D
:100F750050AA51A952120A60606530E71B85534398
:100F8500AD4FAF4E120B4F74022552F552E4355159
:100F9500F551054F054F8021AB50AA51A952120AB0
:100FA50060FB85532FAD4FAF4E120CEA74012552ED
:100FB500F552E43551F551054FAB50AA51A95212DE
:100FC5000A6030E709E54FC3940F400C8005E54FF3
:100FD500B41005054EE4F54FE54E640470912222E8
:080DA2008F238D248A258B2686
:100DAA0085252985262AE52645257007F52F7B30D6
:100DBA00020CEAE4F527F528D3E5269400E5259404
:100DCA0000402CAB26AA257C007D0AAF03AE021296
:100DDA000B0DAA04AB05AE25AF267C007D0A120ACC
:100DEA00B88E258F260528E52870CD052780C9E409
:100DFA00F52BAF2B7E00C3EF9528E5276480F874A6
:100E0A008098503DC3E5289FCFE5279ECF24FFFD5C
:100E1A00EF34FFFC7F0A120003AC29AD2ACFCDCFF5
:100E2A00CECCCE120AB87C007D0A120AB8ED243064
:100E3A00FBAD240524E4F52FAF23120CEA052B8021
:010E4A00B1F6
:010E4B002284
:080003008E2C8F2DAB05AA0421
:10000B007F017E00EB1BAC0270011A4C6009AC2C1B
:07001B00AD2D120AA680EDD5
:0100220022BB
:100C2C001213C2E4FD7FAE121310E4FDFF12131079
:100C3C00E4FD7F10121310E4FD7F40121310E4FD4D
:100C4C007FB0121310E4FD7F81121310E4FD7FFFBF
:100C5C00121310E4FD7FA1121310E4FD7FA61213F2
:100C6C0010E4FD7FA8121310E4FD7F3F121310E473
:100C7C00FD7FC8121310E4FD7FD3121310E4FDFFA7
:100C8C00121310E4FD7FD5121310E4FD7F801213B4
:100C9C0010E4FD7FD9121310E4FD7FF1121310E460
:100CAC00FD7FDA121310E4FD7F12121310E4FD7FA6
:100CBC00DB121310E4FD7F30121310E4FD7F8D1254
:100CCC001310E4FD7F14121310E4FD7FAF12131008
:0E0CDC00E4FDFF1212AAE4FF12123302136CA1
:0F13D100D286D2871213FBC2861213FBC2872269
:0C13EF00C286D2871213FBD2860213FBC9
:02126B008F569C
:10126D00E4F55774807E00A857088006CEA2E713D8
:10127D00CE13D8F8FFEF555624FF9286D28712135E
:0F128D00FBC2871213FB0557E557C3940840D4E3
:01129C00222F
:1012CE00E4F559D286F558D2871213FB30860FAF4C
:1012DE00587480A807088002C313D8FC4259C287ED
:0E12EE001213FB0558E558C3940840DBAF59B6
:0112FC0022CF
:0F13E000EF24FF9286D2871213FBC2870213FB02
:10139D00D2861213FBD287A286E433F55AC2871286
:0413AD0013FBAF5A25
:0113B1002219
:10134F0043878075985053890F438920758BFA75A1
:0D135F008DFAC2ABD28ED29CD2ACD2AF229E
:08140B008F993099FDC299226E
:101329008B1D8A1E891FAB1DAA1EA91F120A60FFE9
:10133900601312140B1213FB7401251FF51FE435FA
:061349001EF51E80E122EA
:1011FA008B238A248925AB23AA24A925120A60FFF6
:10120A00601312140B1213FB74012525F525E4351E
:10121A0024F52480E17F0D12140B1213FB7F0A12AE
:09122A00140B7FB87E0B0213883F
:10117D0041542B43495053544152543D22544350F2
:10118D00222C223139322E3136382E3130302E3359
:10119D0036222C38300041542B4349504D4F444595
:1011AD003D310041542B43495053454E4400474572
:0211BD005400DC
:1011BF007FE87E031213887BFF7A11797D1211FA73
:1011CF00C2A27BFF7A1179A31211FAC2A37BFF7A15
:1011DF001179B01211FAC2A47BFF7A1179BB1211E7
:0B11EF00FA7FE87E03121388C2A522DD
:100EE500020823E493A3F8E493A34003F68001F2F8
:100EF50008DFF48029E493A3F85407240CC8C3330E
:100F0500C4540F4420C8834004F456800146F6DFDC
:100F1500E4800B01020408102040809013B2E47EA7
:100F2500019360BCA3FF543F30E509541FFEE493D1
:100F3500A360010ECF54C025E060A840B8E493A398
:100F4500FAE493A3F8E493A3C8C582C8CAC583CAC3
:100F5500F0A3C8C582C8CAC583CADFE9DEE780BE7B
:0113C100002B
:100A6000BB010689828A83E0225002E722BBFE0294
:090A7000E32289828A83E49322C7
:100A7900BB010CE58229F582E5833AF583E0225032
:100A890006E92582F8E622BBFE06E92582F8E2227C
:0D0A9900E58229F582E5833AF583E4932296
:100AA600EF8DF0A4A8F0CF8CF0A428CE8DF0A42E64
:020AB600FE221E
:100AB800BC000BBE0029EF8DF084FFADF022E4CC22
:100AC800F875F008EF2FFFEE33FEEC33FCEE9DECEB
:100AD800984005FCEE9DFE0FD5F0E9E4CEFD22ED31
:100AE800F8F5F0EE8420D21CFEADF075F008EF2F7B
:100AF800FFED33FD4007985006D5F0F222C398FD6C
:050B08000FD5F0EA2208
:100B0D00C2D5EC30E709B2D5E4C39DFDE49CFCEE03
:100B1D0030E715B2D5E4C39FFFE49EFE120AB8C3B9
:100B2D00E49DFDE49CFC8003120AB830D507C3E4B4
:060B3D009FFFE49EFE2272
:0C0B4300A42582F582E5F03583F58322BD
:00000001FF
